:0400000068EF09F0AC
:101000000000010E286E2250D8A409EF08F00BEF63
:1010100008F074EF08F02250D96EDA6ADF30E83257
:10102000E832070B236E080E236019EF08F01BEF60
:1010300008F070EF08F074EF08F02250D96EDA6A09
:10104000DF30E832E832070B236E010E246E232ACC
:101050002CEF08F0D8902436232E2AEF08F02450E5
:10106000FF0A256E2250D96EDA6ADF50070B020D97
:10107000F350150FD96EDA6ADECF26F0DDCF27F0F8
:1010800026C0D9FF27C0DAFF2550DF168AEF08F007
:101090002250D96EDA6ADF30E832E832070B236E6D
:1010A000010E246E232A57EF08F0D8902436232E01
:1010B00055EF08F02250D96EDA6ADF50070B020DA7
:1010C000F350150FD96EDA6ADECF25F0DDCF26F0AA
:1010D00025C0D9FF26C0DAFF2450DF128AEF08F0BE
:1010E000000E286E8AEF08F02250D96EDA6ADFBC53
:1010F0007CEF08F07FEF08F0010E80EF08F0000EA3
:10110000000AD8B41DEF08F0010AD8B448EF08F07F
:1011100070EF08F028501200010E296E2250D8A45A
:1011200094EF08F096EF08F0FFEF08F02250D96E28
:10113000DA6ADF30E832E832070B246E080E2460EA
:10114000A4EF08F0A6EF08F0FBEF08F0FFEF08F0BF
:101150002250D96EDA6ADF30E832E832070B246EAB
:10116000010E256E242AB7EF08F0D8902536242EDC
:10117000B5EF08F02550FF0A266E2250D96EDA6AC4
:10118000DF50070B020DF3500B0FD96EDA6ADECF7A
:1011900027F0DDCF28F027C0D9FF28C0DAFF26507E
:1011A000DF1614EF09F02250D96EDA6ADF30E83228
:1011B000E832070B246E010E256E242AE2EF08F0B8
:1011C000D8902536242EE0EF08F02250D96EDA6A46
:1011D000DF50070B020DF3500B0FD96EDA6ADECF2A
:1011E00026F0DDCF27F026C0D9FF27C0DAFF255033
:1011F000DF1214EF09F0000E296E14EF09F02350EE
:10120000246E256A2550000AD8B409EF09F0FBEFD7
:1012100008F02450000AD8B4A8EF08F0010AD8B4A6
:10122000D3EF08F0FBEF08F02950120093EC09F01F
:10123000316E1F0E226E000E236E8CEC08F0316EA4
:10124000210E226E010E236E8CEC08F0316E060E1C
:101250002B6E130E2A6EAE0EE82EFED72A2EFCD76A
:101260002B2EFAD7210E226E000E236E8CEC08F086
:10127000316E200E226E010E236E8CEC08F0316E62
:10128000060E2B6E130E2A6EAE0EE82EFED72A2EF9
:10129000FCD72B2EFAD7200E226E000E236E8CEC7C
:1012A00008F0316E1F0E226E010E236E8CEC08F0DA
:1012B000316E060E2B6E130E2A6EAE0EE82EFED782
:1012C0002A2EFCD72B2EFAD719EF09F000EF00F0E9
:1012D000040EF66E130EF76E000EF86E00EE01F0BF
:1012E00010EE21F00900F5CFEEFFE550E150FAE1F4
:1012F000306A2F6A2E6A2D6A2C6A000EF86E000181
:1013000016EF09F0800F810F820F830F840F890F72
:101310008A0F8B0F8C0F8D0F920F930F940F950FD9
:05132000960F928A8285
:10132600210E226E01EC08F0200E226E01EC08F070
:0E1336001F0E226E01EC08F0296E29501200E5
:020000040030CA
:0E000000FF02091EFF8181FF0FC00FE00F40BD
:00000001FF
