:040000008EEF09F086
:101000000000010E356E2F50D8A409EF08F00BEF49
:1010100008F074EF08F02F50D96EDA6ADF30E8324A
:10102000E832070B306E080E306019EF08F01BEF46
:1010300008F070EF08F074EF08F02F50D96EDA6AFC
:10104000DF30E832E832070B306E010E316E302AA5
:101050002CEF08F0D8903136302E2AEF08F03150BE
:10106000FF0A326E2F50D96EDA6ADF50070B020D7D
:10107000F350150FD96EDA6ADECF33F0DDCF34F0DE
:1010800033C0D9FF34C0DAFF3250DF168AEF08F0E0
:101090002F50D96EDA6ADF30E832E832070B306E53
:1010A000010E316E302A57EF08F0D8903136302ECD
:1010B00055EF08F02F50D96EDA6ADF50070B020D9A
:1010C000F350150FD96EDA6ADECF32F0DDCF33F090
:1010D00032C0D9FF33C0DAFF3150DF128AEF08F097
:1010E000000E356E8AEF08F02F50D96EDA6ADFBC39
:1010F0007CEF08F07FEF08F0010E80EF08F0000EA3
:10110000000AD8B41DEF08F0010AD8B448EF08F07F
:1011100070EF08F035501200010E366E2F50D8A433
:1011200094EF08F096EF08F0FFEF08F02F50D96E1B
:10113000DA6ADF30E832E832070B316E080E3160D0
:10114000A4EF08F0A6EF08F0FBEF08F0FFEF08F0BF
:101150002F50D96EDA6ADF30E832E832070B316E91
:10116000010E326E312AB7EF08F0D8903236312EA8
:10117000B5EF08F03250FF0A336E2F50D96EDA6A9D
:10118000DF50070B020DF3500B0FD96EDA6ADECF7A
:1011900034F0DDCF35F034C0D9FF35C0DAFF33503D
:1011A000DF1614EF09F02F50D96EDA6ADF30E8321B
:1011B000E832070B316E010E326E312AE2EF08F091
:1011C000D8903236312EE0EF08F02F50D96EDA6A1F
:1011D000DF50070B020DF3500B0FD96EDA6ADECF2A
:1011E00033F0DDCF34F033C0D9FF34C0DAFF3250F2
:1011F000DF1214EF09F0000E366E14EF09F03050D4
:10120000316E326A3250000AD8B409EF09F0FBEFB0
:1012100008F03150000AD8B4A8EF08F0010AD8B499
:10122000D3EF08F0FBEF08F0365012006BEC09F03A
:101230003F6E010E396E060E396021EF09F023EF83
:1012400009F046EF09F039501E0FD96EDA6ADF5007
:101250002F6E010E306E8CEC08F03F6E3950210F6E
:10126000D96EDA6ADF502F6E000E306E8CEC08F00B
:101270003F6E020E386E450E376EAA0EE82EFED770
:10128000372EFCD7382EFAD75EEF09F039501E0FF3
:10129000D96EDA6ADF502F6E010E306E8CEC08F0DA
:1012A0003F6E3950190FD96EDA6ADF502F6E000E7B
:1012B000306E8CEC08F03F6E39EF09F0392A080ED9
:1012C000396465EF09F067EF09F01BEF09F019EFDA
:1012D00009F000EF00F02E0E2F6E01EC08F02D0E3D
:1012E0002F6E01EC08F02C0E2F6E01EC08F02B0E87
:1012F0002F6E01EC08F02A0E2F6E01EC08F0290E7B
:101300002F6E01EC08F0280E2F6E01EC08F0270E6E
:101310002F6E01EC08F0366E36501200500EF66E4D
:10132000130EF76E000EF86E00EE01F010EE2EF0C8
:101330000900F5CFEEFFE550E150FAE13E6A3D6A63
:101340003C6A3B6A3A6A000EF86E000116EF09F03B
:10135000800F810F820F830F840F890F8A0F8B0FED
:101360008C0F8D0F920F930F940F950F960F2E2DBC
:0E1370002C2B2A292827BAB2AAA29A928A8286
:020000040030CA
:0E000000FF02091EFF8181FF0FC00FE00F40BD
:00000001FF
